:020000040000FA
:040000001CEF00F001
:100008005B82F2AC13D09EA60AD000017E057F1158
:10001800D8A404D0000E7F6F000E7E6F9E96A1A616
:1000280005D0000E5A6E010E596EA1965B92110012
:04003800B3EF0AF028
:1002000000423A30782530347800473A307825304B
:10021000347800493A30782530347800523A3078D2
:100220002530347800583A252B30346400593A256B
:100230002B303464005A3A252B303464000045C01A
:10024000D9FF46C0DAFFDECFF6FFDDCFF7FF0800AB
:10025000F550250AD8A4ACD145C0D9FF46C0DAFF75
:10026000DE2A000EDD22000E0001736F000E726F99
:1002700072C057F073C058F074697569000EB56F9D
:10028000000E14D0578045C0D9FF46C0DAFFDE2AE1
:10029000000EDD222ED05782F6D75784F4D757862A
:1002A000F2D75788F0D7000EB56F010EB46F21D08A
:1002B00045C0D9FF46C0DAFFDECFF6FFDDCFF7FF3E
:1002C0000800F550496E4A6A4A50000AD8A4EBD794
:1002D0004950200AD8B4E3D7030AD8B4E2D7080AB1
:1002E000D8B4DBD7060AD8B4CDD71D0AD8B4D3D733
:1002F000DAD7B451B511D8B4DBD757B0579245C04F
:10030000D9FF46C0DAFFDECFF6FFDDCFF7FF0800EA
:10031000F5502A0AD8A423D045C0D9FF46C0DAFF39
:10032000DE2A000EDD2247C0D9FF48C0DAFFDFCF4A
:1003300049F0020EDE26DFCF4AF0000EDD2249C072
:10034000D9FF4AC0DAFFDECF72F0DDCF73F073AFB2
:1003500040D05780726D731FD8B0732B3AD045C010
:10036000D9FF46C0DAFFDECF08F0DDCF09F029EC77
:1003700007F008C072F009C073F007D045C0D9FF7C
:1003800046C0DAFFDE2A000EDD22D00E496EFF0ED7
:100390004A6E45C0D9FF46C0DAFFDECFF6FFDDCF9B
:1003A000F7FF0800F5504B6E4C6A49504B264A50F7
:1003B0004C224C5006E10A0E4B5CD8B002D0010E24
:1003C00001D0000E0001B66FB76BB651B711D8A4BB
:1003D000D5D745C0D9FF46C0DAFFDECFF6FFDDCF67
:1003E000F7FF0800F550640AD8B40DD045C0D9FF16
:1003F00046C0DAFFDECFF6FFDDCFF7FF0800F5508D
:10040000690AD8A43FD045C0D9FF46C0DAFFDE2A2A
:10041000000EDD2247C0D9FF48C0DAFFDFCF49F028
:10042000020EDE26DFCF4AF0000EDD2249C0D9FFE2
:100430004AC0DAFFDECFA4F0DDCFA5F0000EA5BFE5
:10044000FF0EA66FA76FA86FA96FAA6FAB6F43C00F
:100450001CF044C01DF0A4C01EF0A5C01FF0A6C033
:1004600020F0A7C021F0A8C022F0A9C023F0AAC0A4
:1004700024F0ABC025F04EEC04F01CC043F01DC0CE
:1004800044F0120045C0D9FF46C0DAFFDECFF6FFC8
:10049000DDCFF7FF0800F550780AD8B40DD045C07D
:1004A000D9FF46C0DAFFDECFF6FFDDCFF7FF080049
:1004B000F550580AD8A44DD045C0D9FF46C0DAFF40
:1004C000DECFF6FFDDCFF7FF0800F5CFB8F045C06F
:1004D000D9FF46C0DAFFDE2A000EDD2247C0D9FF71
:1004E00048C0DAFFDFCF49F0020EDE26DFCF4AF048
:1004F000000EDD2249C0D9FF4AC0DAFFDECF4BF043
:10050000DDCF4CF04BC0ACF04CC0ADF0AE6BAF6B80
:10051000B06BB16BB26BB36B43C01CF044C01DF049
:10052000ACC01EF0ADC01FF0AEC020F0AFC021F0D7
:10053000B0C022F0B1C023F0B2C024F0B3C025F0A7
:10054000B8C026F06FEC05F01CC043F01DC044F0AD
:10055000120045C0D9FF46C0DAFFDECFF6FFDDCF7F
:10056000F7FF0800F550250AD8A416D045C0D9FFDA
:1005700046C0DAFFDE2A000EDD22000E026E250ED6
:10058000016E43C003F044C004F031EC09F0000EEA
:10059000446E010E436E120045C0D9FF46C0DAFF1B
:1005A000DE2A000EDD22000E446E000E436E1200A5
:1005B00045C0D9FF46C0DAFFDECFF6FFDDCFF7FF3B
:1005C0000800F550016E026A43C003F044C004F015
:1005D00031EC09F045C0D9FF46C0DAFFDE2A000E33
:1005E000DD22D5D7AEEC0DF0F28EF28C000E026E4D
:1005F000000E016E5AEC0DF0000E0C6E000E0B6E2C
:10060000000E0E6E320E0D6E000E106E010E0F6E8D
:10061000000E126E100E116E5BEC08F0E4EC0AF0A6
:100620009EEC0CF0030E566E080E556E770EE82EFB
:10063000FED7552EFCD7562EFAD700F0000E0C6EC2
:10064000000E0B6E000E0E6E000E0D6E19EC0DF00E
:10065000030E566E080E556E770EE82EFED7552EF9
:10066000FCD7562EFAD700F0000E086E010E096E68
:1006700015EC0BF0150E566E4B0E556EBE0EE82E99
:10068000FED7552EFCD7562EFAD700D0000E00010B
:10069000DE6F000EDD6FDDC0DBF0DEC0DCF0DBC046
:1006A000D9F0DCC0DAF0000ED86F000ED76FE30E81
:1006B000086E000E096EDF0E0A6E000E0B6EE10E64
:1006C0000C6E000E0D6ECEEC08F00001E351D92542
:1006D000D96FE451DA21DA6FDF51DB25DB6FE051AE
:1006E000DC21DC6FE151DD25DD6FE251DE21DE6FC3
:1006F000D74BD82BD8BFDBD7D85104E1640ED75DD8
:10070000D8A0D5D7D9C001F0DAC002F0000E046E2F
:10071000640E036ECCEC09F001C0D1F002C0D2F03F
:10072000DBC001F0DCC002F0000E046E640E036E4C
:10073000CCEC09F001C0D3F002C0D4F0DDC001F070
:10074000DEC002F0000E046E640E036ECCEC09F005
:1007500001C0D5F002C0D6F09EEC0CF0000E0001F6
:10076000DE6F000EDD6FDDC0DBF0DEC0DCF0E30E1F
:10077000086E000E096EDF0E0A6E000E0B6EE10EA3
:100780000C6E000E0D6ECEEC08F00001D151E35D51
:10079000E36FD251E459E46FD351DF5DDF6FD45181
:1007A000E059E06FD551E15DE16FD651E259E26F5A
:1007B000E3C013F0E4C014F0B8EC0CF014BE08D0A1
:1007C000145004E1050E135CD8A002D08A8E01D02B
:1007D0008A9E000E0C6E000E0B6E000E0E6E000E4A
:1007E0000D6E19EC0DF0C90E0001B96F000EBA6F55
:1007F000250EBB6F020EBC6FE3C0BDF0E4C0BEF0BF
:100800009AEC0BF0C90E086E000E096E15EC0BF099
:10081000C90E0001B96F000EBA6F2D0EBB6F020E2C
:10082000BC6FDFC0BDF0E0C0BEF09AEC0BF0000E74
:100830000C6E080E0B6E000E0E6E000E0D6E19EC97
:100840000DF0C90E086E000E096E15EC0BF0C90E06
:100850000001B96F000EBA6F350EBB6F020EBC6F90
:10086000E1C0BDF0E2C0BEF09AEC0BF0000E0C6EE1
:10087000000E0B6E000E0E6E010E0D6E19EC0DF0DB
:10088000C90E086E000E096E15EC0BF0340E556E95
:10089000F20EE82EFED7552EFCD760D71EC036F0DC
:1008A0001FC037F020C038F021C039F022C03AF024
:1008B00023C03BF024C03CF025C03DF03DAE02D04B
:1008C000010E01D0000E346E356A34503510D8B4A4
:1008D00010D03D1E3C1E3B1E3A1E391E381E371ED0
:1008E000366C000E3722382239223A223B223C2233
:1008F0003D22000175AF579275BF05D0755108E1D3
:100900007405D8B005D0000E316E010E306E04D0E3
:1009100074C030F075C031F072C032F073C033F083
:1009200034503510D8A402D057A403D03206D8A032
:100930003306000E3F6E1F0E3E6E000EA36F7CD07E
:100940003E06D8A03F06840E3E24D96E000E3F20FE
:10095000DA6E36C001F037C002F038C003F039C09B
:1009600004F03AC005F03BC006F03CC007F03DC0C3
:1009700008F00A0E096E000E0A6E000E0B6E000ED5
:100980000C6E000E0D6E000E0E6E000E0F6E000E41
:10099000106EC9EC07F001C026F002C027F003C0BA
:1009A00028F004C029F005C02AF006C02BF007C0CB
:1009B0002CF008C02DF026C013F028C014F0B8ECBD
:1009C0000CF01350300FDF6E3006D8A0310632061F
:1009D000D8A0330636C001F037C002F038C003F0AB
:1009E00039C004F03AC005F03BC006F03CC007F047
:1009F0003DC008F00A0E096E000E0A6E000E0B6E66
:100A0000000E0C6E000E0D6E000E0E6E000E0F6EC0
:100A1000000E106E85EC06F001C036F002C037F013
:100A200003C038F004C039F005C03AF006C03BF00E
:100A300007C03CF008C03DF03FBE1FD03F5003E16F
:100A40003E04D8A01AD036503710381039103A105A
:100A50003B103C103D10D8A473D731BE05D03150A7
:100A600002E13004D8B06CD733BE07D0335003E175
:100A70003204D8A002D057B263D734503510D8A46E
:100A800002D057A417D03E06D8A03F0634503510E8
:100A9000D8A404D0000E2F6E2B0E03D0000E2F6EA4
:100AA0002D0E2E6E840E3E24D96E000E3F20DA6E7F
:100AB0002EC0DFFF1CC011F01DC012F0840E3E24BA
:100AC000136E000E3F20146E32C015F033C016F0C6
:100AD00081EC09F011C01CF012C01DF012000001E1
:100AE00075AF579275BF05D0755108E17405D8B040
:100AF00005D0000E346E010E336E04D074C033F096
:100B000075C034F072C035F073C036F057A804D009
:100B1000FE0E3526FF0E36221EC037F01FC038F0FD
:100B200020C039F021C03AF022C03BF023C03CF095
:100B300024C03DF025C03EF0000E406E1F0E3F6EFB
:100B4000000EA36F93D03F06D8A040060F0E3714B7
:100B5000416E426A42BE08D0425004E10A0E415C36
:100B6000D8A002D0570E01D0300E4124416E000EA5
:100B70004220426EBF0E276EFF0E286E2650296E51
:100B80002A6A2750292628502A222A5006E11A0EBE
:100B9000295CD8B002D0010E01D0000E2F6E306A51
:100BA0002F503010D8B427D09F0E276EFF0E286E1E
:100BB000200E4110296E000E42102A6E2750292661
:100BC00028502A222A5006E11A0E295CD8B002D0F9
:100BD000010E01D0000E316E326A31503210D8B49D
:100BE0000AD041C007F042C008F0EAEC0BF007C0A1
:100BF00041F008C042F0840E3F24D96E000E402020
:100C0000DA6E41C0DFFF3306D8A034063506D8A01F
:100C1000360637C027F038C028F039C029F03AC06E
:100C20002AF03BC02BF03CC02CF03DC02DF03EC064
:100C30002EF0050E09D0D8902E322D322C322B32C8
:100C40002A32293228322732E82EF5D727C037F04A
:100C500028C038F029C039F02AC03AF02BC03BF048
:100C60002CC03CF02DC03DF02EC03EF040BE20D048
:100C7000405004E1020E3F5CD8A01AD03750381023
:100C800039103A103B103C103D103E10D8A45BD7F1
:100C900034BE05D0345002E13304D8B054D736BE48
:100CA00007D0365003E13504D8A002D057B24BD755
:100CB00057A816D03F06D8A04006840E3F24D96E10
:100CC000000E4020DA6E26C0DFFF3F06D8A04006A7
:100CD000840E3F24D96E000E4020DA6E300EDF6E97
:100CE0001CC011F01DC012F0840E3F24136E000EC4
:100CF0004020146E35C015F036C016F081EC09F0B6
:100D000011C01CF012C01DF01200000E126E10AEC9
:100D100012D0101E0F1E0E1E0D1E0C1E0B1E0A1EC4
:100D2000096C000E0A220B220C220D220E220F2229
:100D30001022010E126E08AE12D0081E071E061EEB
:100D4000051E041E031E021E016C000E0222032259
:100D500004220522062207220822010E121A20EE82
:100D600013F0070EDE6AE806FDE209500A100B10C8
:100D70000C100D100E100F101010D8B446D0010E2C
:100D8000116E0AD0D89009360A360B360C360D365D
:100D90000E360F361036112A10AEF4D7D89013360F
:100DA0001436153616361736183619361A360950CF
:100DB000015C0A5002580B5003580C5004580D5057
:100DC00005580E5006580F50075810500858D8A014
:100DD00011D00950015E0A50025A0B50035A0C50B0
:100DE000045A0D50055A0E50065A0F50075A10500B
:100DF000085A1380D89010320F320E320D320C3256
:100E00000B320A320932112EC9D71250D8B410D081
:100E10001A1E191E181E171E161E151E141E136CE0
:100E2000000E1422152216221722182219221A2225
:100E300013C001F014C002F015C003F016C004F096
:100E400017C005F018C006F019C007F01AC008F066
:100E50001200000E166E000E156E000E0F6E000EC4
:100E60000E6E02D0084A092A010E146E08C0F6FF61
:100E700009C0F7FF0800F550200AD8B418D0F70EC3
:100E80000A6EFF0E0B6E08C0F6FF09C0F7FF0800E0
:100E9000F5500C6E0D6A0A500C260B500D220D50A9
:100EA00004E1050E0C5CD8A002D0000E146E14C034
:100EB00010F0116A10501110D8B408D0D3D7000E1A
:100EC0000F6E010E0E6E084A092A2ED008C0F6FFDA
:100ED00009C0F7FF0800F5500A6E0B6A0B50000AB4
:100EE000D8A422D00A502B0AD8B4EDD7060AD8B419
:100EF000E6D71AD015C001F016C002F0000E046E3D
:100F00000A0E036E6FEC0DF008C0F6FF09C0F7FF84
:100F10000800F550015E000E025A300E0124156ED5
:100F2000000E0220166ECFD7D00E0A6EFF0E0B6E8B
:100F300008C0F6FF09C0F7FF0800F5500C6E0D6AF7
:100F40000A500C260B500D220D5006E10A0E0C5CC7
:100F5000D8B002D0010E01D0000E126E136A1250EA
:100F60001310D8A4C7D70E500F10D8A40DD015C099
:100F70000AF016C00BF00A1E0B1E0A4A0B2A0AC002
:100F800008F00BC009F0120015C008F016C009F0F7
:100F90001200000E126E08AE12D0081E071E061EAA
:100FA000051E041E031E021E016C000E02220322F7
:100FB00004220522062207220822010E126E10AE1C
:100FC00010D0101E0F1E0E1E0D1E0C1E0B1E0A1E14
:100FD000096C000E0A220B220C220D220E220F2277
:100FE000102209500A100B100C100D100E100F10CB
:100FF0001010D8B43CD0010E116E0AD0D89009362A
:101000000A360B360C360D360E360F361036112AD0
:1010100010AEF4D70950015C0A5002580B50035827
:101020000C5004580D5005580E5006580F500758D4
:1010300010500858D8A010D00950015E0A50025A2A
:101040000B50035A0C50045A0D50055A0E50065AB4
:101050000F50075A1050085AD89010320F320E32E3
:101060000D320C320B320A320932112ED3D7125004
:10107000D8B410D0081E071E061E051E041E031E2F
:10108000021E016C000E0222032204220522062207
:101090000722082201C001F002C002F003C003F0E1
:1010A00004C004F005C005F006C006F007C007F054
:1010B00008C008F01200090E146E1E0E136EE40E26
:1010C000E82EFED7132EFCD7142EFAD700D011C06D
:1010D0007CF012C07DF0000E026E040E016E82ECF8
:1010E0000DF0000E0001796F380E786F78512EECFC
:1010F0000CF0390E2EEC0CF0140E2EEC0CF00F0E42
:101100000D14136E000E0E14146E700E1310166E66
:101110001450176E16502EEC0CF00DC013F00EC0CC
:1011200014F0040E156E143414321332152EFBD73E
:10113000030E1316000E1416500E1310166E1450D4
:10114000176E0B040C10D8A405D0080E1610166EDE
:101150001750176E0F041010D8A405D0040E1610E7
:10116000166E1750176E16C076F017C077F0560E31
:101170002EEC0CF06C0E2EEC0CF0000E026E140E29
:10118000016E82EC0DF0000178512EEC0CF0010E96
:101190002EEC0CF00C0E2EEC0CF01200000E046E77
:1011A0001D0E036E000E066E000E056E0EEC0AF0AC
:1011B00003C010F004C011F010501110D8A44ED08C
:1011C000320EC3EC0BF0000E046E1D0E036E000E0B
:1011D000066E010E056E47EC0AF0000E0F6E000E53
:1011E0000E6E000E136E000E126E050E1218131006
:1011F000D8A404D0000E0F6E010E0E6E140E122431
:10120000D96E000E1320DA6E0EC003F00FC004F08A
:1012100070EC0BF00350DF6E124A132A13BEE5D7B1
:10122000135004E1060E125CD8A0DFD708C0D9FF26
:1012300009C0DAFF14C0DEFF15C0DDFF0AC0D9FF08
:101240000BC0DAFF16C0DEFF17C0DDFF0CC0D9FFF0
:101250000DC0DAFF18C0DEFF19C0DDFF9CEC0DF0F9
:10126000120003500410D8B404D003500410D8A4C2
:1012700004D00150CAEC0DF0120020EE04F003502F
:10128000D9260450DA22DE50DE10D8B416D020EE73
:1012900004F00350D9260450DA2210EE02F0035075
:1012A000E1260450E222DE50E65CE650800A096E38
:1012B000DE50800A0958D8B0120020EE02F0035028
:1012C000D9260450DA22DECF05F0DDCF06F003C0C8
:1012D000D9FF04C0DAFFDECF07F0DDCF08F00550FC
:1012E0000724D96E06500820DA6E01C0DFFF20EE19
:1012F00002F00350D9260450DA22DE2A000EDD2245
:10130000120057A00AD013C00AF014C00BF011C08D
:101310000CF012C00DF04CEC0CF016BE05D015C050
:101320001AF016C01BF004D0000E1B6E000E1A6ED1
:10133000000E196E000E186E0CD0000E026E200EFC
:10134000016E11C003F012C004F031EC09F0184A2C
:10135000192A1A50185C1950800A176E1B50800AFF
:101360001758D8A0EAD757B00AD013C00AF014C053
:101370000BF011C00CF012C00DF04CEC0CF013C0CF
:1013800001F014C002F030EC0DF01A500124116E7F
:101390001B500220126E1200000E066E04AE06D024
:1013A000036C041ED8B0042A010E066E02AE06D0ED
:1013B000016C021ED8B0022A010E061A000E086E39
:1013C000000E076E03500410D8B41CD0010E056E39
:1013D00004D0D89003360436052A04AEFAD7D89044
:1013E000073608360350015C04500258D8A005D0D7
:1013F0000350015E0450025A0780D8900432033231
:10140000052EEDD70650D8B404D0076C081ED8B00E
:10141000082A07C001F008C002F01200000E5A6E40
:10142000000E596E050E91EC0DF0C580050E91EC85
:101430000DF059045A10D8A403D0036804681200B0
:10144000000E00017F6F010E7E6F9E960350020D0D
:10145000F3500524C96E08D0060E076E300EE82E34
:10146000FED7072EFCD700D000017E517F11D8A4F3
:10147000F3D759045A10D8B4E0D7C5AC03D0076AE3
:10148000072A01D0076A0750036E046A1200000E93
:101490005A6E000E596E050E91EC0DF0C582050EC8
:1014A00091EC0DF059045A10D8A403D003680468D5
:1014B0001200000E00017F6F010E7E6F0350020DBF
:1014C000F3500524C96E08D0060E076E300EE82EC4
:1014D000FED7072EFCD700D000017E517F11D8A483
:1014E000F3D759045A10D8B4E1D7C5AC03D0076A72
:1014F000072A01D0076A0750036E046A12000A6EB9
:10150000000E046E1D0E036E000E066E000E056EBC
:101510000EEC0AF003C00BF004C00CF00B500C10E2
:10152000D8A418D00A50C3EC0BF0000E046E1D0EA8
:10153000036E000E066E010E056E47EC0AF0000EFB
:10154000046E010E036E70EC0BF003C00BF004C0D0
:101550000CF002D00B680C689CEC0DF00BC008F08E
:101560000CC009F012004A0EF66E1B0EF76E000E4C
:10157000F86E01EE00F010EE11F00900F5CFEEFF6D
:10158000E550E150FAE1780EF66E1B0EF76E000E94
:10159000F86E00EEE5F010EE0DF00900F5CFEEFF6D
:1015A000E550E150FAE100EE60F0440EEE6AE80624
:1015B000FDE15A6A596A586A576A5B905B92000E5D
:1015C000F86E0001F2EF02F00B0E0D6E620EE82EC7
:1015D000FED70D2EFCD700D0000E7FEC0AF008C01D
:1015E0000EF009C00FF0E50E0E180F10D8A412006F
:1015F0000B0E086E2C0E68EC0CF0110E086E310EFE
:1016000068EC0CF0000E086E380E68EC0CF0080E5A
:10161000086E2D0E68EC0CF00B0E0D6E620EE82EAF
:10162000FED70D2EFCD700D01200000E046E3E0E29
:10163000036E000E066E000E056E0EEC0AF003C07F
:101640000BF004C00CF00B500C10D8A41BD0400EB3
:10165000C3EC0BF010D008C0D9FF09C0DAFFDF508F
:10166000C3EC0BF0084A092A340E0A6EF20EE82E7B
:10167000FED70A2EFCD708C0D9FF09C0DAFFDF5019
:10168000D8A4E9D79CEC0DF012004FC053F050C025
:1016900054F0000E0001716F000E706F13D04DC03A
:1016A00043F04EC044F0530E456E000E466E51C0DE
:1016B00047F052C048F01FEC01F043500001702782
:1016C0004450712353C0F6FF54C0F7FF0800F55093
:1016D0000009D8A4E4D770C04DF071C04EF01200DC
:1016E000000E5A6E000E596E050E91EC0DF0C58677
:1016F000040E91EC0DF059045A10D8A403D00368DD
:1017000004681200C9CF05F0066A050E91EC0DF0D1
:1017100059045A10D8A403D003680468120003B017
:1017200002D0C59A01D0C58AC58805C003F006C09D
:1017300004F01200BD0E0001C16F000EC26FB9C0EF
:10174000C3F0BAC0C4F0000EC66F000EC56F000E25
:10175000C86F000EC76FC30E4D6E000E4E6EBBC03D
:101760004FF0BCC050F0C10E516E000E526E45ECF1
:101770000BF00001C551B925D96EC651BA21DA6EF8
:10178000000EDF6E1200046E000E5A6E000E596ECF
:10179000050E91EC0DF059045A10D8B41200000E49
:1017A00000017F6F010E7E6F04C0C9FF08D0060ED6
:1017B000036E300EE82EFED7032EFCD700D00001BA
:1017C0007E517F11D8A4F3D759045A10D8B412000F
:1017D000C55012009F0E096EFF0E0A6E07C00BF077
:1017E00008C00CF009500B260A500C220C5006E1E0
:1017F0001A0E0B5CD8B002D0010E01D0000E0D6E97
:101800000E6A0D500E10D8B405D05F0E0714076E87
:10181000086A120007C007F008C008F01200010EA5
:10182000076E200E01180210D8B414D0F70E036E04
:10183000FF0E046E01C005F002C006F0035005263D
:1018400004500622065004E1050E055CD8A002D023
:10185000000E076E07C001F0026A12000A6E000E49
:10186000046E3E0E036E000E066E000E056E0EEC4C
:101870000AF003C008F004C009F008500910D8A409
:1018800006D0800EC3EC0BF00A50C3EC0BF09CECBE
:101890000DF0C3EC0DF01200000E106E000E0F6E76
:1018A0000BD00EC001F0026A0CC003F00DC004F0B2
:1018B00031EC09F00F4A102A0F500A24D96E10504B
:1018C0000B20DA6EDF500E6E0E50D8B41200E9D73E
:1018D000096E000E046E1D0E036E000E066E000EE5
:1018E000056E0EEC0AF003C00AF004C00BF00A50BB
:1018F0000B10D8A406D00950C3EC0BF00850C3EC71
:101900000BF09CEC0DF012009F0E036EFF0E046EA8
:10191000200E0110056E000E0210066E0350052603
:1019200004500622065006E11A0E055CD8B002D01B
:10193000010E01D0000E016E026A1200010E2EECA3
:101940000CF0060E0B6EB60EE82EFED70B2EFCD753
:10195000020E2EEC0CF0060E0B6EB60EE82EFED725
:101960000B2EFCD7000E00017B6F000E7A6F120069
:1019700014BE05D0145010E11304D8B00DD013C01C
:1019800015F014C016F0151E161E154A162A15C09D
:1019900013F016C014F0120013C013F014C014F0AA
:1019A00012009F0E036EFF0E046E01C005F002C010
:1019B00006F00350052604500622065006E11A0ED2
:1019C000055CD8B002D0010E01D0000E016E026A93
:1019D0001200BF0E036EFF0E046E01C005F002C0C0
:1019E00006F00350052604500622065006E11A0EA2
:1019F000055CD8B002D0010E01D0000E016E026A63
:101A00001200D00E036EFF0E046E01C005F002C07E
:101A100006F00350052604500622065006E10A0E81
:101A2000055CD8B002D0010E01D0000E016E026A32
:101A30001200EEC00FF0EFC010F0F0C011F0F1C0D6
:101A400012F0D8900D34D96E0E34DA6E0F0ED926FE
:101A5000000EDA22DF500B2480092EEC0CF012006D
:101A600001C003F002C004F002D0014A022A01C002
:101A7000D9FF02C0DAFFDF50D8A4F7D70350015CCA
:101A8000016E04500258026E1200000E896E000EA4
:101A90008A6E000E8B6E370E926E700E936E7F0EF6
:101AA000946E7E68090E7F6E500E786E000E776E13
:101AB000F19E1200280EC66E800EC76E01500210F5
:101AC000D8A403D0270EC86E03D0090EC86EC79ED7
:101AD0009D86A086F28CF28E9E96A19612000150F1
:101AE0000302F3CF05F0F4CF06F001500402F350E7
:101AF000062602500302F350062605C001F006C078
:101B000002F01200340E036EF20EE82EFED7032E02
:101B1000FCD70106D8A0020601500210D8B412006A
:101B2000F1D7026EC7500214016EC5501F0B011091
:101B30000009D8B41200F6D7000E5A6E000E596E86
:101B4000050E91EC0DF0C584120048656C6C6F2C8D
:0B1B50002050494320576F726C640066
:101B5C00C8EC0DF045EC0DF0B5EC0DF01200700E6C
:101B6C00D36E040ED26E000E9B6E120057616B2D5D
:091B7C007465636800000040007C
:101B8600220EE82EFED700D01200D09E12001200C0
:020000040020DA
:08000000FFFFFFFFFFFFFFFF00
:020000040030CA
:0E000000FF281E1FFF0881FF03C003E003401E
:00000001FF
